:100000000C94F3020C941B030C941B030C941B0321
:100010000C941B030C941B030C941B030C941B03E8
:100020000C941B030C941B030C941B030C941B03D8
:100030000C941B030C941B030C941B030C941B03C8
:100040000C9466070C941B030C941B030C941B0369
:100050000C941B030C941B030C941B030C941B03A8
:100060000C941B030C941B034602000000FF0800C5
:10007000053E5B4F5B3E053E6B4F6B3E051C3E7C79
:100080003E1C05183C7E3C18051C577D571C051C62
:100090005E7F5E1C0400183C1805FFE7C3E7FF0401
:1000A0000018241805FFE7DBE7FF0530483A060E85
:1000B00005262979292605407F05050705407F0586
:1000C000253F055A3CE73C5A057F3E1C1C080508A5
:1000D0001C1C3E7F0514227F221405FFFFFFFFFF3B
:1000E00005F0F0F0F0F003FFFFFF05000000FFFF58
:1000F000050F0F0F0F0F0508047E04080510207E62
:1001000020100508082A1C0805081C2A080805AA4A
:10011000005500AA05AA55AA55AA0530383E383020
:1001200005060E3E0E06020000015F0307000705EC
:10013000147F147F1405444AFF4A32056313086490
:10014000630536494936480107033E4141034141B1
:100150003E05082A1C2A080508083E08080260E037
:100160000408080808026060056010080403053EE2
:100170005149453E0304027F0571494949460541FD
:1001800049494936050F0808087F054F4949493153
:10019000053E4949493005030101017F05364949BA
:1001A000493605064949493E026C6C026CEC03086D
:1001B0001422041414141403221408050159090903
:1001C00006053E415D594E057E0909097E057F49B8
:1001D000494936053E41414141057F4141413E0586
:1001E0007F49494941057F09090901053E414149C6
:1001F00079057F0808087F03417F4105304141416F
:100200003F057F08142241057F40404040057F02A2
:100210000C027F057F0408107F053E4141413E05E9
:100220007F09090906053E4141617E057F091929BB
:10023000460546494949310501017F0101053F4015
:1002400040403F051F2040201F053F4038403F05EC
:1002500063140814630503047804030561514945D8
:1002600043037F41410503040810600341417F05BA
:100270000402010204048080808003010204043827
:1002800044447C047F44443804384444440438449F
:10029000447F043854545804047E05010418A4A46F
:1002A0007C047F040478017D0384857C047F10280E
:1002B00044017F057C04780478047C0404780438C5
:1002C00044443804FC24241804182424FC047C042A
:1002D0000408045854543403047F04043C40407C14
:1002E000041C20407C053C4030403C046C10106CE9
:1002F000041CA0A07C046454544C04083641410101
:100300007F04414136080402010201057F41414159
:100310007F053E55555541053844443844057C2AEF
:100320002A3E14057E0202060605027E027E0205B2
:100330006355494163053844443C0405407E201E12
:10034000200506027E0202086313086463006060F1
:10035000052A2A2A2A2A03514A4403444A510500FD
:1003600000FF010303E080FF053612362436030246
:100370000502021818021010053040FF0101041F89
:1003800001011E000000000901017F017F020C0233
:100390007F0000000000000100017D0418247E247D
:1003A00004447E454105221C141C2205012A7C2A96
:1003B000010177044E55553903020002077E81BDC5
:1003C000A5A5817E0326292F0508142A14220408D6
:1003D00008081803080808077E81BD95A9817E05D5
:1003E00001010101010302050203242E2403191552
:1003F000120315150A02020104F8204078050609C7
:100400007F017F021818040080A0C003121F100390
:100410002629260522142A140808402F1008041E35
:10042000117C08402F10080462554C0915553F10E7
:1004300008041E117C053048484D400578151614F7
:1004400078057814161578057A1514157A05781636
:10045000151679057815141578057814151478078C
:100460007E09097F494941059EA1612121057C54EE
:10047000554644057C54564544057E55544546052D
:100480007C5554454403457E4403447E4503467DE4
:100490004603457C4505087F49413E057C0A1122FB
:1004A0007D053844454638053844464538053A45C3
:1004B00044453A05384645463905384544453805EA
:1004C0002214081422057C625A463E053C404142F3
:1004D0003C053C4042413C053C4241423C053C41DC
:1004E00040413C0502047A0502043F12120C057ECD
:1004F00049494E30043845467C043844467D04382A
:1005000046457E043A45467D043845447D04304ADC
:100510004D7A0720545438545458049CA262220443
:10052000385556580438545659043856555A0438D4
:1005300055545902017A027A0103027902030278C2
:100540000204304B4B3C047A090A710430494A30AA
:100550000430484A3104304A49320432494A3104AD
:10056000394444390508082A08080438544C38042A
:10057000384142780438404279043842417A043A9A
:1005800040407A0418A0A27904FC282810041AA07C
:10059000A07A000000080002010000030407000028
:1005A00000000000000000000000250028002B00D3
:1005B00000000000240027002A00040404040404AE
:1005C0000404020202020202030303030303010202
:1005D00004081020408001020408102001020408D1
:1005E00010201B0A380A11241FBECFEFD8E0DEBF4F
:1005F000CDBF11E0A0E0B1E0E2E9F7E102C0059073
:100600000D92A43DB107D9F722E0A4EDB1E001C0FD
:100610001D92A033B207E1F712E0C2EFD2E004C0AE
:100620002197FE010E94830AC13FD107C9F70E94AA
:10063000B0070C94BC0B0C94000090E0FC01E2535A
:10064000FA4F249186549A4FFC018491882399F0A3
:1006500090E0880F991FFC01E055FA4FA591B491E5
:10066000FC01EA55FA4F859194918FB7F894EC917B
:10067000E22BEC938FBF089590E0FC01EE56FA4F09
:100680002491FC01E253FA4F3491FC01E654FA4FF5
:10069000E491EE23C9F0222339F0233001F1A8F4CC
:1006A000213019F1223029F1F0E0EE0FFF1FEA5559
:1006B000FA4FA591B4918FB7F894EC91611126C0CF
:1006C00030953E233C938FBF08952730A9F0283002
:1006D000C9F0243049F7809180008F7D03C080915C
:1006E00080008F7780938000DFCF84B58F7784BDC3
:1006F000DBCF84B58F7DFBCF8091B0008F77809367
:10070000B000D2CF8091B0008F7DF9CF3E2BDACFF1
:100710003FB7F8948091070290910802A0910902D6
:10072000B0910A0226B5A89B05C02F3F19F001968B
:10073000A11DB11D3FBFBA2FA92F982F8827BC013B
:10074000CD01620F711D811D911D42E0660F771F63
:10075000881F991F4A95D1F708958F929F92AF9263
:10076000BF92CF92DF92EF92FF924B015C010E9409
:1007700088036B017C010E9488036C197D098E0936
:100780009F09683E734081059105A8F321E0821A14
:100790009108A108B10888EEC80E83E0D81EE11CBC
:1007A000F11C81149104A104B10429F7FF90EF908A
:1007B000DF90CF90BF90AF909F908F900895FC01F5
:1007C000438550E0440F551F70E060E086859785B3
:1007D0000C94AE0BCF92DF92EF92FF920F931F9388
:1007E000CF93DF93EC0188858823A1F08091D60117
:1007F000882361F08FB7F8949091D601913041F53C
:100800009DB39093D5019DB39DBB8FBF80E58CBDFB
:1008100081E08DBD60E08F810E943C038885882344
:10082000D1F030E020E08B8590E0880F991F2817E9
:100830003907C8F5EE85FF85E20FF31F80818EBD75
:1008400000000DB407FEFDCF8EB52F5F3F4FEBCFFD
:100850008093D501DBCF10E000E08B8590E0880F1E
:10086000991F08171907F8F4EE85FF85E00FF11FAF
:10087000E080DE80CD8088E0F82E6E2D661F662732
:10088000661F8C2D0E943C03EE0C61E08D2D0E94B2
:100890003C0360E08D2D0E943C03FA94F110EDCFF3
:1008A0000F5F1F4FDACF61E08F810E943C03888584
:1008B000882371F08091D601882351F09FB7F89476
:1008C0002091D6018091D501213059F48DBB9FBF75
:1008D000DF91CF911F910F91FF90EF90DF90CF901C
:1008E00008958FBFF5CFBF92CF92DF92EF92FF9224
:1008F0000F931F93CF93DF93EC0189E0689F700102
:100900001124D12CC12C062F10E0BB24B394BC0CB5
:10091000EC85FD85EE0DFF1D808590E00C2C02C05E
:10092000959587950A94E2F780FF27C0CE010E9433
:10093000DF038B858150990B801B910B880F991FCA
:100940002E853F85820F931FFC01B082EC85FD85CB
:10095000EE0DFF1DEC0DFD1D40818B858150990B27
:10096000801B910B880F991F2E853F85820F931F47
:10097000FC014183CE010E94EA03FFEFCF1ADF0A98
:1009800088E0C816D10409F68C859D85E80EF91E0D
:10099000F7011086DF91CF911F910F91FF90EF909B
:1009A000DF90CF90BF9008959F92AF92BF92CF9269
:1009B000DF92EF92FF920F931F93CF93DF93FC018F
:1009C00089E0689FE001112481E090E0A0E0B0E0C0
:1009D0006C017D01042E04C0CC0CDD1CEE1CFF1C40
:1009E0000A94D2F7BC2C7C2D709507E010E0041B14
:1009F000110904C0880F991FAA1FBB1F0A95D2F7BF
:100A0000A82E382F309590E080E0022F10E027E0EC
:100A1000E22EF12CAC01A485B585AC0FBD1F24815D
:100A200093806801082E02C0D594C7940A94E2F717
:100A3000C0FE2DC0222319F0A701481B590BA40F9B
:100A4000B51F2C914B2D91104A2D242B2C930196E0
:100A500088309105F9F684859585C80FD91F8FEFE9
:100A600088878489882331F08385681718F4CF013B
:100A70000E94730481E0DF91CF911F910F91FF904D
:100A8000EF90DF90CF90BF90AF909F90089522237A
:100A900019F0A701481B590BA40FB51F2C91472F24
:100AA0009110432F2423D2CFCF93DF93DC01862FE5
:100AB000942F13963C9113973323C1F0229530E085
:100AC000F901F595E795F595E795E373220F331F47
:100AD000220F331F2C7C2E2BE22FF0E09F01359547
:100AE00027952575EE0FFF1FEA7A2E2B39E0839F9D
:100AF000F00111241C96CD91DC911D97CE0FDF1FC4
:100B0000692F70E014963C91149747E050E0461B23
:100B1000570B311101C0AB01C40FD51F28831C96A0
:100B20002D913C911D97E20FF31F208514963C9167
:100B30001497332321F1C7E0D0E0C61BD70B41E067
:100B400050E060E070E09C2F04C0440F551F661F0A
:100B5000771F9A95D2F7422B408754969C915497D1
:100B6000992349F01B969C911B97891720F4682FB5
:100B7000CD010E94730481E0DF91CF91089541E09F
:100B800050E060E070E0E0CFCF92DF92EF92FF9212
:100B90000F931F93CF93DF93EC01DD24D394F12CBB
:100BA000E12C01E010E0B9E0CB2ECE010E94DF0382
:100BB00098010E2C02C0220F331F0A94E2F7E0E0E6
:100BC00090E08B85E81798F5EC9DA0011124AC8589
:100BD000BD85A40FB51F18966C9170E06223732336
:100BE000672B19F16E2F70E08150990B861B970BC4
:100BF000880F991FAE85BF85A80FB91FDC92AC8501
:100C0000BD85A40FB51FAE0DBF1DFC918B85815016
:100C1000990B861B970B880F991F4E855F85840F54
:100C2000951FDC011196FC9391E0EF5FCACF9923E9
:100C300019F0CE010E94EA03BFEFEB1AFB0AD3942E
:100C400088E0E816F10409F0B0CF80E099E02B8548
:100C5000821748F4EC85FD85899FE00DF11D112474
:100C600010868F5FF4CFDF91CF911F910F91FF908E
:100C7000EF90DF90CF90089590E069E058E04FEF5B
:100C8000969F90011124A0911702B0911802A20F13
:100C9000B31FFD01752F11927A95E9F7E0911702C4
:100CA000F0911802E20FF31F40879F5F891740F70A
:100CB00080911F02882321F08BE092E00C94C40500
:100CC0000895FF920F931F93CF93DF93EC018B0155
:100CD000F0901602FA948BE092E00E94DF0360E04D
:100CE000702F872F9AE0C230D10559F0B8F59BE0FC
:100CF000C130D10531F081E00115110509F080E026
:100D00009CE0462F50E0209116022150330B241B0B
:100D1000350B220F331FE0911902F0911A02E20FF6
:100D2000F31F9083209116022150330B241B350BA7
:100D3000220F331F4091190250911A02240F351FC0
:100D4000F90181836F5FF61660F68BE092E0DF9128
:100D5000CF911F910F91FF900C94EA03C330D105FE
:100D600059F0C430D10539F681E00115110509F4B7
:100D700080E0819599E0C5CF81E00115110509F466
:100D800080E09FE0BECFEF92FF920F931F93CF932F
:100D9000DF939FEB960F9A3108F041C06054082F03
:100DA00010E08091160228E0829FC00111240817EC
:100DB000190708F049C0E0901F0210921F0285E059
:100DC000689FE0011124C050DF4FF12C2991402F82
:100DD0004770B80183E0769567958A95E1F7809131
:100DE000160230910D02332341F1681720F48BE095
:100DF00092E00E94D404F3940150110925E0F2120C
:100E0000E5CFE0921F02EE20F9F08BE092E0DF9157
:100E1000CF911F910F91FF90EF900C94C4059FE923
:100E2000960F9A3110F46056BACF90ED960F655137
:100E30009A3008F4B4CF60E0B2CF6817E0F68BE0E8
:100E400092E00E945405D7CFDF91CF911F910F916F
:100E5000FF90EF900895DF92EF92FF920F931F9310
:100E6000CF93DF9300E06830E9F0E42EF62EEC013A
:100E7000DB840C891C8A10E0DA948B859A81992393
:100E8000D1F0181730F42E2D4F2D612FCE010E9476
:100E900054051F5FD11688F70C8B0023A9F0CE01F3
:100EA0000E94C405802FDF91CF911F910F91FF9079
:100EB000EF90DF900895181760F72E2D4F2D612FBA
:100EC000CE010E94D404E5CF01E0ECCF1F920F9237
:100ED0000FB60F9211242F933F938F939F93AF934D
:100EE000BF938091030290910402A0910502B091FA
:100EF00006023091020223E0230F2D3758F50196A8
:100F0000A11DB11D2093020280930302909304025D
:100F1000A0930502B0930602809107029091080207
:100F2000A0910902B0910A020196A11DB11D809302
:100F3000070290930802A0930902B0930A02BF919E
:100F4000AF919F918F913F912F910F900FBE0F9076
:100F50001F90189526E8230F0296A11DB11DD2CF30
:100F6000789484B5826084BD84B5816084BD85B584
:100F7000826085BD85B5816085BD80916E00816090
:100F800080936E0010928100809181008260809336
:100F90008100809181008160809381008091800038
:100FA0008160809380008091B10084608093B10063
:100FB0008091B00081608093B00080917A0084605D
:100FC00080937A0080917A00826080937A00809189
:100FD0007A00816080937A0080917A0080688093A3
:100FE0007A001092C10080911302882309F4C0C0D6
:100FF000CFB7F8948091D701811124C0E4ECF5E0DB
:101000008491E8EDF5E09491E82FF0E0EE0FFF1FFA
:10101000E055FA4FA591B491EC91E92321F461E0F8
:101020008AE00E943C038AE00E941D038CB5806127
:101030008CBD8CB580648CBD8DE00E941D038BE05F
:101040000E941D038091D7018F5F8093D701CFBF8E
:10105000809112020E941D0361E0809112020E94A1
:101060003C0310921C0210921B0210921E0210925E
:101070001D0280912102909122028856904009F42D
:101080009AC0E8E6F0E0F0932202E0932102109289
:10109000230288E0809324021092270210922602F5
:1010A0008FEF90E0909329028093280210922B02F8
:1010B00010922A02E491E63409F033C0E9E6F0E048
:1010C000E491E13009F45DC082E090E0E23029F57E
:1010D000EAE6F0E08491EBE6F0E0E49190E0982F0E
:1010E00088278E0F911D9093270280932602ECE6AD
:1010F000F0E08491EDE6F0E0E49190E0982F88270D
:101100008E0F911D9093290280932802EEE6F0E065
:10111000E491E093240287E090E090932B02809387
:101120002A02C0902A02D0902B02F12CE12C2091AF
:10113000260230912702409128025091290260E056
:101140004217530708F435C0F601E859FF4F849160
:10115000681708F4682F90E0B0E0A0E00196A11DA8
:10116000B11DC80ED91EEA1EFB1E2F5F3F4FE8CFF0
:10117000809110020E941D03809111020E941D03A4
:1011800067CFEAE6F0E0E491F0E0F0932702E09325
:101190002602EBE6F0E0E491F0E0F0932902E09320
:1011A0002802ECE6F0E0E491E093240285E090E090
:1011B000B4CF60932502C0911602E9E0CE9FC00132
:1011C00011240E94890A8C019093180280931702BF
:1011D0008C2F90E0880F991F0E94890A90931A0221
:1011E00080931902892B29F1012B19F170E060E03D
:1011F00083E090E00E94610667E070E081E090E0AB
:101200000E94610667E070E082E090E00E94610663
:1012100070E060E084E090E00E9461068091160238
:1012200081500E943C0670E060E090E080E00E9407
:10123000610626E0822E912C34E2532E47E0442EA4
:1012400050E0A52E50E0B52EC8E04FEF6C2F8091F6
:101250000002909101020E942B076CE271E080E095
:1012600090E00E94AD03C15081F7C1E040E06C2FD7
:1012700080910002909101020E942B076CE271E0C4
:1012800080E090E00E94AD03CF5FC73079F76FEB4D
:1012900071E088ED91E00E94B50BD0E0C0E010E075
:1012A00000E0C801B4010E945B0A6B013B01FFEF43
:1012B0006F1A7F0A2EE0621671041CF09DE0692E01
:1012C000712CC301E6E06E16710414F486E090E020
:1012D0007C01F6E0EF1AF1088091160281500E941D
:1012E0003C06C30188529E4F3C013C2E91E0691A96
:1012F0007108C301885D91408E159F0544F0F3018C
:101300006081832D0E94C306F6E03F0EEFCF219649
:10131000C630D10534F02CE0C216D10414F4D0E06C
:10132000C0E062E370E080E090E00E94AD030F5FF8
:101330001F4F0237110509F0B4CF6DEC71E08CEE50
:1013400091E00E94B50B0CEE11E082E1F82ED0E0A6
:10135000C0E0F80162818F2D0E94C30664EF71E046
:1013600080E090E00E94AD0360E28F2D0E94C306F2
:10137000209799F0FE01E451FE4F6281E52CEF18B1
:101380008E2D0E94C30664EF71E080E090E00E9421
:10139000AD0360E28E2D0E94C30621960150110913
:1013A000F6E0FF0E24E2F212D4CF6091EE0182E16A
:1013B0000E94C3066091ED0188E10E94C30660911E
:1013C000EF018CE00E94C3066091EC018EE10E9467
:1013D000C3066091F00186E00E94C30668EE73E0E8
:1013E00080E090E00E94AD03C3E06CE271E080E039
:1013F00090E00E94AD0340E06C2F8091000290913C
:1014000001020E942B07642D6C1B40E080910002BA
:10141000909101020E942B07C15038F76CE271E0F5
:1014200080E090E00E94AD03A114B10409F40CCF58
:101430000E94000009CFEBE0F2E08BE085838DE0B5
:1014400086838AE08783108684ED91E09287818786
:1014500086E0838781E0848B22E030E03183208343
:10146000828383831482F0930102E0930002089543
:1014700080911302882399F09FB7F8948091D70147
:10148000882319F081508093D7018091D701811171
:1014900005C08CB58F7B8CBD1092D6019FBF80910B
:1014A0001702909118020E94250B809119029091C9
:1014B0001A020C94250B97FB072E16F4009407D004
:1014C00077FD09D00E946F0A07FC05D03EF4909585
:1014D00081959F4F0895709561957F4F0895AA1B40
:1014E000BB1B51E107C0AA1FBB1FA617B70710F00F
:1014F000A61BB70B881F991F5A95A9F78095909541
:10150000BC01CD010895EE0FFF1F0590F491E02D71
:1015100009940F931F93CF93DF938230910510F4BA
:1015200082E090E0E0912E02F0912F0230E020E086
:10153000B0E0A0E0309799F42115310509F44AC0D4
:10154000281B390B24303105D8F58A819B81611520
:10155000710589F1FB0193838283FE0111C04081F3
:1015600051810281138148175907E0F04817590744
:1015700099F4109761F012960C93129713961C939E
:101580003296CF01DF91CF911F910F910895009373
:101590002E0210932F02F4CF2115310551F042177E
:1015A000530738F0A901DB019A01BD01DF01F80101
:1015B000C1CFEF01F9CF90932F0280932E02CDCFB0
:1015C000FE01E20FF31F8193919322503109398379
:1015D0002883D7CF20912C0230912D02232B41F468
:1015E0002091BB013091BC0130932D0220932C023D
:1015F0002091B9013091BA012115310541F42DB77F
:101600003EB74091BD015091BE01241B350BE091C6
:101610002C02F0912D02E217F307A0F42E1B3F0BD2
:101620002817390778F0AC014E5F5F4F2417350754
:1016300048F04E0F5F1F50932D0240932C02819370
:1016400091939FCFF0E0E0E09CCFCF93DF930097A2
:10165000E9F0FC01329713821282A0912E02B09120
:101660002F02ED0130E020E01097A1F420813181BC
:10167000820F931F20912C0230912D0228173907D9
:1016800009F061C0F0932D02E0932C02DF91CF911D
:101690000895EA01CE17DF07E8F54A815B819E01D4
:1016A00041155105B1F7E901FB83EA83499159914D
:1016B000C40FD51FEC17FD0761F48081918102965C
:1016C000840F951FE90199838883828193819B838D
:1016D0008A83F0E0E0E012968D919C911397009739
:1016E000B9F52D913C911197CD010296820F931F70
:1016F00020912C0230912D022817390739F63097A6
:1017000051F510922F0210922E02B0932D02A09349
:101710002C02BCCFD383C28340815181840F951F9B
:10172000C817D90761F44E5F5F4F88819981480FD0
:10173000591F518340838A819B8193838283211522
:10174000310509F0B0CFF0932F02E0932E029ECF27
:10175000FD01DC01C0CF13821282D7CFDC0101C0B2
:101760006D9341505040E0F70895FB01DC0101907A
:101770000D920020E1F7089512E0C2EFD2E004C01C
:10178000FE010E94830A2196C33FD107C9F7F8944E
:02179000FFCF89
:1017920000000000007E0909097E7F494949363E62
:1017A200414141417F4141413E7F494949417F0990
:1017B2000909013E414149797F0808087F00417FBC
:1017C2004100304141413F7F081422417F40404067
:1017D200407F020C027F7F0408107F3E4141413E60
:1017E2007F090909063E4141617E7F091929464662
:1017F2004949493101017F01013F4040403F1F20DB
:1018020040201F3F4038403F6314081463030478AC
:10181200040361514945433E5149453E0004027F5C
:1018220000714949494641494949360F0808087F2C
:101832004F494949313E49494930030101017F3647
:1018420049494936064949493E0000300280004D67
:101852006F65696E41686D6164696568004D6963B1
:04186200726F0000A1
:00000001FF
